:020000040000fa
:080000000002040000000000f2
:020000040000fa
:040008009a03000057
:020000040000fa
:04000c0018030000d5
:020000040000fa
:040010005a0300008f
:020000040000fa
:0400140038030000ad
:020000040000fa
:040018007a03000067
:020000040000fa
:04001c009a03000043
:020000040000fa
:040020009a0300003f
:020000040000fa
:040024009a0300003b
:020000040000fa
:040028009a03000037
:020000040000fa
:04002c009a03000033
:020000040000fa
:040030009a0300002f
:020000040000fa
:040034009a0300002b
:020000040000fa
:040038009a03000027
:020000040000fa
:04003c009a03000023
:020000040000fa
:040040009a0300001f
:020000040000fa
:040044009a0300001b
:020000040000fa
:040048009a03000017
:020000040000fa
:04004c009a03000013
:020000040000fa
:040050009a0300000f
:020000040000fa
:040054009a0300000b
:020000040000fa
:040058009a03000007
:020000040000fa
:04005c009a03000003
:020000040000fa
:040060009a030000ff
:020000040000fa
:040064009a030000fb
:020000040000fa
:040068009a030000f7
:020000040000fa
:04006c009a030000f3
:020000040000fa
:040070009a030000ef
:020000040000fa
:040074000403000081
:020000040000fa
:040078009a030000e7
:020000040000fa
:04007c009a030000e3
:020000040000fa
:040080009a030000df
:020000040000fa
:040084009a030000db
:020000040000fa
:040088009a030000d7
:020000040000fa
:04008c009a030000d3
:020000040000fa
:040090009a030000cf
:020000040000fa
:040094009a030000cb
:020000040000fa
:040098009a030000c7
:020000040000fa
:04009c009a030000c3
:020000040000fa
:0400a0009a030000bf
:020000040000fa
:0400a4009a030000bb
:020000040000fa
:0400a8009a030000b7
:020000040000fa
:0400ac009a030000b3
:020000040000fa
:0400b0009a030000af
:020000040000fa
:0400b4009a030000ab
:020000040000fa
:0400b8009a030000a7
:020000040000fa
:0400bc009a030000a3
:020000040000fa
:0400c0009a0300009f
:020000040000fa
:0400c4009a0300009b
:020000040000fa
:0400c8009a03000097
:020000040000fa
:0400cc009a03000093
:020000040000fa
:0400d0009a0300008f
:020000040000fa
:0400d4009a0300008b
:020000040000fa
:0400d8009a03000087
:020000040000fa
:0400dc009a03000083
:020000040000fa
:0400e0009a0300007f
:020000040000fa
:0400e4009a0300007b
:020000040000fa
:0400e8009a03000077
:020000040000fa
:0400ec009a03000073
:020000040000fa
:0400f0009a0300006f
:020000040000fa
:0400f4009a0300006b
:020000040000fa
:0400f8009a03000067
:020000040000fa
:0400fc009a03000063
:020000040000fa
:040100009a0300005e
:020000040000fa
:040104009a0300005a
:020000040000fa
:040108009a03000056
:020000040000fa
:04010c009a03000052
:020000040000fa
:040110009a0300004e
:020000040000fa
:040114009a0300004a
:020000040000fa
:040118009a03000046
:020000040000fa
:04011c009a03000042
:020000040000fa
:040120009a0300003e
:020000040000fa
:040124009a0300003a
:020000040000fa
:040128009a03000036
:020000040000fa
:04012c009a03000032
:020000040000fa
:040130009a0300002e
:020000040000fa
:040134009a0300002a
:020000040000fa
:040138009a03000026
:020000040000fa
:04013c009a03000022
:020000040000fa
:040140009a0300001e
:020000040000fa
:040144009a0300001a
:020000040000fa
:040148009a03000016
:020000040000fa
:04014c009a03000012
:020000040000fa
:040150009a0300000e
:020000040000fa
:040154009a0300000a
:020000040000fa
:040158009a03000006
:020000040000fa
:04015c009a03000002
:020000040000fa
:040160009a030000fe
:020000040000fa
:040164009a030000fa
:020000040000fa
:040168009a030000f6
:020000040000fa
:04016c009a030000f2
:020000040000fa
:040170009a030000ee
:020000040000fa
:040174009a030000ea
:020000040000fa
:040178009a030000e6
:020000040000fa
:04017c009a030000e2
:020000040000fa
:040180009a030000de
:020000040000fa
:040184009a030000da
:020000040000fa
:040188009a030000d6
:020000040000fa
:04018c009a030000d2
:020000040000fa
:040190009a030000ce
:020000040000fa
:040194009a030000ca
:020000040000fa
:040198009a030000c6
:020000040000fa
:04019c009a030000c2
:020000040000fa
:0401a0009a030000be
:020000040000fa
:0401a4009a030000ba
:020000040000fa
:0401a8009a030000b6
:020000040000fa
:0401ac009a030000b2
:020000040000fa
:0401b0009a030000ae
:020000040000fa
:0401b4009a030000aa
:020000040000fa
:0401b8009a030000a6
:020000040000fa
:0401bc009a030000a2
:020000040000fa
:0401c0009a0300009e
:020000040000fa
:0401c4009a0300009a
:020000040000fa
:0401c8009a03000096
:020000040000fa
:0401cc009a03000092
:020000040000fa
:0401d0009a0300008e
:020000040000fa
:0401d4009a0300008a
:020000040000fa
:0401d8009a03000086
:020000040000fa
:0401dc009a03000082
:020000040000fa
:0401e0009a0300007e
:020000040000fa
:0401e4009a0300007a
:020000040000fa
:0401e8009a03000076
:020000040000fa
:0401ec009a03000072
:020000040000fa
:0401f0009a0300006e
:020000040000fa
:0401f4009a0300006a
:020000040000fa
:0401f8009a03000066
:020000040000fa
:0401fc009a03000062
:020000040000fa
:040208009a03000055
:020000040000fa
:04020c0018030000d3
:020000040000fa
:040210005a0300008d
:020000040000fa
:0402140038030000ab
:020000040000fa
:040218007a03000065
:020000040000fa
:04021c009a03000041
:020000040000fa
:040220009a0300003d
:020000040000fa
:040224009a03000039
:020000040000fa
:040228009a03000035
:020000040000fa
:04022c009a03000031
:020000040000fa
:040230009a0300002d
:020000040000fa
:040234009a03000029
:020000040000fa
:040238009a03000025
:020000040000fa
:04023c009a03000021
:020000040000fa
:040240009a0300001d
:020000040000fa
:040244009a03000019
:020000040000fa
:040248009a03000015
:020000040000fa
:04024c009a03000011
:020000040000fa
:040250009a0300000d
:020000040000fa
:040254009a03000009
:020000040000fa
:040258009a03000005
:020000040000fa
:04025c009a03000001
:020000040000fa
:040260009a030000fd
:020000040000fa
:040264009a030000f9
:020000040000fa
:040268009a030000f5
:020000040000fa
:04026c009a030000f1
:020000040000fa
:040270009a030000ed
:020000040000fa
:04027400040300007f
:020000040000fa
:040278009a030000e5
:020000040000fa
:04027c009a030000e1
:020000040000fa
:040280009a030000dd
:020000040000fa
:040284009a030000d9
:020000040000fa
:040288009a030000d5
:020000040000fa
:04028c009a030000d1
:020000040000fa
:040290009a030000cd
:020000040000fa
:040294009a030000c9
:020000040000fa
:040298009a030000c5
:020000040000fa
:04029c009a030000c1
:020000040000fa
:0402a0009a030000bd
:020000040000fa
:0402a4009a030000b9
:020000040000fa
:0402a8009a030000b5
:020000040000fa
:0402ac009a030000b1
:020000040000fa
:0402b0009a030000ad
:020000040000fa
:0402b4009a030000a9
:020000040000fa
:0402b8009a030000a5
:020000040000fa
:0402bc009a030000a1
:020000040000fa
:0402c0009a0300009d
:020000040000fa
:0402c4009a03000099
:020000040000fa
:0402c8009a03000095
:020000040000fa
:0402cc009a03000091
:020000040000fa
:0402d0009a0300008d
:020000040000fa
:0402d4009a03000089
:020000040000fa
:0402d8009a03000085
:020000040000fa
:0402dc009a03000081
:020000040000fa
:0402e0009a0300007d
:020000040000fa
:0402e4009a03000079
:020000040000fa
:0402e8009a03000075
:020000040000fa
:0402ec009a03000071
:020000040000fa
:0402f0009a0300006d
:020000040000fa
:0402f4009a03000069
:020000040000fa
:0402f8009a03000065
:020000040000fa
:0402fc009a03000061
:020000040000fa
:040300009a0300005c
:020000040000fa
:040304009a03000058
:020000040000fa
:040308009a03000054
:020000040000fa
:04030c009a03000050
:020000040000fa
:040310009a0300004c
:020000040000fa
:040314009a03000048
:020000040000fa
:040318009a03000044
:020000040000fa
:04031c009a03000040
:020000040000fa
:040320009a0300003c
:020000040000fa
:040324009a03000038
:020000040000fa
:040328009a03000034
:020000040000fa
:04032c009a03000030
:020000040000fa
:040330009a0300002c
:020000040000fa
:040334009a03000028
:020000040000fa
:040338009a03000024
:020000040000fa
:04033c009a03000020
:020000040000fa
:040340009a0300001c
:020000040000fa
:040344009a03000018
:020000040000fa
:040348009a03000014
:020000040000fa
:04034c009a03000010
:020000040000fa
:040350009a0300000c
:020000040000fa
:040354009a03000008
:020000040000fa
:040358009a03000004
:020000040000fa
:04035c009a03000000
:020000040000fa
:040360009a030000fc
:020000040000fa
:040364009a030000f8
:020000040000fa
:040368009a030000f4
:020000040000fa
:04036c009a030000f0
:020000040000fa
:040370009a030000ec
:020000040000fa
:040374009a030000e8
:020000040000fa
:040378009a030000e4
:020000040000fa
:04037c009a030000e0
:020000040000fa
:040380009a030000dc
:020000040000fa
:040384009a030000d8
:020000040000fa
:040388009a030000d4
:020000040000fa
:04038c009a030000d0
:020000040000fa
:040390009a030000cc
:020000040000fa
:040394009a030000c8
:020000040000fa
:040398009a030000c4
:020000040000fa
:04039c009a030000c0
:020000040000fa
:0403a0009a030000bc
:020000040000fa
:0403a4009a030000b8
:020000040000fa
:0403a8009a030000b4
:020000040000fa
:0403ac009a030000b0
:020000040000fa
:0403b0009a030000ac
:020000040000fa
:0403b4009a030000a8
:020000040000fa
:0403b8009a030000a4
:020000040000fa
:0403bc009a030000a0
:020000040000fa
:0403c0009a0300009c
:020000040000fa
:0403c4009a03000098
:020000040000fa
:0403c8009a03000094
:020000040000fa
:0403cc009a03000090
:020000040000fa
:0403d0009a0300008c
:020000040000fa
:0403d4009a03000088
:020000040000fa
:0403d8009a03000084
:020000040000fa
:0403dc009a03000080
:020000040000fa
:0403e0009a0300007c
:020000040000fa
:0403e4009a03000078
:020000040000fa
:0403e8009a03000074
:020000040000fa
:0403ec009a03000070
:020000040000fa
:0403f0009a0300006c
:020000040000fa
:0403f4009a03000068
:020000040000fa
:0403f8009a03000064
:020000040000fa
:0403fc009a03000060
:020000040000fa
:100400002f8220000e7f22000e01880000000000d5
:10041000000020000000e000020032000001200087
:100420002002880014000700c40007000000e0005c
:1004300003003a0000822000010020000200370083
:100440000000200001002000810f70000100320038
:1004500014000700000020000000e000020032004d
:1004600000000200000000008c06020000000000f6
:100470000040da000000fe004440a90020002000f7
:100480000000e0000300320010002000900188000e
:100490004440a800000006008a1f78008b1f7800e7
:1004a00000000600a1028800800478000000eb0034
:1004b0001f003700e284440054a0b4009905ba003c
:1004c000e284440054a0b4009906ba00e2844400d7
:1004d00054a0b4000006eb00476fde00fd07b20039
:1004e000ae018800636ce10003003a00eaff0700f8
:1004f0000000eb000e003700606ce10008003a00dd
:10050000004deb000a05e800020039003420ec0041
:100510000af0a0008b05e900f9ff3e000400370057
:100520006168e100010032000086eb000b0007006b
:1005300019c7ba001905ba000e04e00003003a001a
:100540000a00e000dbff3a0000000600fe07b200f0
:10055000ae0288008a047800f5ff37000cd0a300b3
:10056000e20f4d001c00390089027800354dba00b9
:100570000a05e800020039003420ec000af0a0006f
:100580008b05e9000f003200254dba000a05e8008e
:10059000020039003420ec000af0a0008b05e900cd
:1005a000080032000c00e0000600320015cdba0051
:1005b0000a05e800020039003420ec000af0a0002f
:1005c0008b05e9008984e80054a0b4000b00e0002a
:1005d000e2ff3a00000006009902ba00055d7800cb
:1005e0008b05e900f7ff3200c82ade00055d7800c0
:1005f0008b05e900f3ff32000c00e000f1ff320050
:1006000019ddba00eeff3700801f78000000fa0005
:1006100030048000680060000000e000010032004b
:100620008660a9000080fa004f00780000400600b4
:100630003600f800809fbe00829fbe00849fbe00ef
:10064000869fbe000000fa008020a9000000eb0099
:10065000670207000080fa004f03be004f02be0091
:100660004f01be004f00be003600f90000400600fa
:100670003600f800809fbe00829fbe00849fbe00af
:10068000869fbe000000fa005e0207008040a900bd
:1006900010002000560207000080fa004f03be0041
:1006a0004f02be004f01be004f00be003600f900f1
:1006b000004006003600f800809fbe00829fbe000a
:1006c000849fbe00869fbe000000fa008060a900e3
:1006d00020002000460207000080fa004f03be0001
:1006e0004f02be004f01be004f00be003600f900b1
:1006f000004006003600f800809fbe00829fbe00ca
:10070000849fbe00869fbe000000fa008080a90082
:1007100030002000360207000080fa004f03be00c0
:100720004f02be004f01be004f00be003600f90070
:10073000004006000040da000000fe000000050056
:020000040000fa
:100740000000fa000223ef000423ef000823ef006b
:10075000f0032000801888001423ef001623ef0018
:100760001823ef001a23ef00101228000018880049
:100770000080fa00000006000400fa00000f780074
:100780000e80e8000108780000000000401880009a
:10079000620060000000e000fcff3a001e007800ec
:1007a000104078000080fb00601888000000000006
:1007b0004118800000022000008060000000e0007e
:1007c000fbff3a0060188000004078008e80e8004f
:1007d00091007800804878000080fa000000060050
:1007e0001800fa00f2014700800978007400470001
:1007f0000108780076004700020878000000eb004e
:10080000000f78008000eb000e80e80001087800ff
:100810008000eb006e004700010878008000eb00cc
:100820007000470001087800110020006c004700ac
:100830000108780072004700100078000000e00016
:1008400007003a008000eb006a00470001087800ca
:10085000f0004700640047000108780006003700f8
:100860006a004700ec004700110878006400470068
:10087000f200470011087800760047001000780069
:100880000000e00007003a008000eb00680047002d
:1008900001087800ee004700660047000108780074
:1008a0000700370068004700ec0047001108780097
:1008b00066004700f60047001108780000000000bd
:1008c00040188000620060000000e000fcff3a0079
:1008d0002700370040188000620060000000e00040
:1008e0000d003a00640047001000780010407800c6
:1008f0000080fb00601888006400470090007800ca
:100900006a004700100078008080400064004700c3
:10091000010878001e0fe800411880000002200046
:10092000008060000000e00011003a0060188000c4
:1009300000407800e6004700910078008048780089
:1009400066004700900078006800470010007800bb
:100950008080400066004700010878000e80e800b3
:10096000100078008000e8000e80e80001087800a0
:1009700074004700100078009e007800808f5000bf
:10098000d4ff390016003700411880000002200013
:10099000008060000000e00011003a006018800054
:1009a00000407800e6004700910078008048780019
:1009b000660047009000780068004700100078004b
:1009c0008080400066004700010878000e80e80043
:1009d000100078008000e8000e80e8000108780030
:1009e0000e80e80090007800740047001000780046
:1009f000808f5000e4ff39001e0078000080fa006c
:100a0000000006000400fa008e80e80080487800ac
:100a10000e80e8008e00780057ff07001e40780027
:100a20000080fa00000006000600fa00000f7800bf
:100a30000e80e80001087800640047000208780092
:100a400064004700100178000e80e80090007800f4
:100a50001e00780062ff07000080fa000000060018
:100a60000000fa00401880000080fa000000060034
:100a70000000fa0080002000002888000225ef0016
:100a800020022000402888000a25ef000c25ef00f6
:100a90000e25ef001025ef001225ef001425ef00c2
:100aa00001e5a8000345a8000080fa000000060048
:100ab0000000fa00000000001028800061006000c3
:100ac0000000e000fcff320010288000620060009f
:100ad0000000e000010032000225a900302880005b
:100ae000004078000080fa00000006000200fa00d2
:100af000004f780000000000112880000020200036
:100b0000008060000000e000fbff3a001e80fb0058
:100b1000202888000080fa00000006000000fa008b
:100b20001028800000407800614060000080fb00d9
:100b300000f0a7000000ea000000ea004f00de001d
:100b4000004078000080fa00000006000000fa0073
:100b50001128800000202000008060000000e000dc
:100b600007003a001128800000402000008060004b
:100b70000000e000020032001000200001003700f9
:100b80000000eb00004078000080fa000000060042
:100b90000000fa00102880004800de00614060007c
:100ba0000080fb0000f0a7000000ea000000ea005f
:100bb0004f00de00004078000080fa0000000600d0
:100bc0000000fa00102880000080fa0000000600f3
:100bd0000000fa0001e5a8000345a8000080fa0023
:100be000000006000000fa0001e5a9000345a90085
:100bf0000080fa00000006000000fa008421ef00e7
:100c000000862400700c880070012000000c880011
:100c1000f07b2500500c88005620ef005820ef0094
:100c20005a20ef006e20ef007020ef007220ef00de
:100c30008621ef009021ef00f0002000400c88009a
:100c4000c0202100900c880001088000f00b2000db
:100c50000081600060042000710520000310200066
:100c6000804978008149780082497800e11e80003f
:100c700000fc2f00008060003000b300e01e880000
:100c8000111f8000f00f2c00808060000070200099
:100c900001007000101f8800811d800000fc2f00e3
:100ca000008060007000b300801d8800011f80007c
:100cb000f00f2c0080806000009020000100700088
:100cc000001f8800a11d800000fc2f000080600034
:100cd000e000b300a01d8800211f8000f00f2c0051
:100ce0000080600000b0a000201f88000008800085
:100cf000000178000260a00060042000710520005f
:100d000003102000804978008149780082497800ea
:100d10000080fa00000006001e00fa00c000070074
:100d200001c8b3000e80e800014878008040eb0065
:100d30006300470001487800a1c0b3006400470089
:100d40000148780001c8b3006500470001487800f9
:100d500091c0b300660047000148780041c2b3006b
:100d60006700470001487800a1c8b3006800470049
:100d7000014878008f61a900e90047000e80e80073
:100d8000010178002100200027ff0700f50047003f
:100d900068004700010178002100200022ff0700c1
:100da000eb00470066004700010178003100200099
:100db0001dff0700f70047006800470001017800a9
:100dc0002100200018ff0700ee00470066004700e2
:100dd000010178003100200013ff0700f9004700ef
:100de0006800470001017800210020000eff070085
:100df000f100470066004700010178003100200043
:100e000009ff0700fb004700680047000101780068
:100e10002100200004ff07008f61a800800020004f
:100e2000000f780040c4b30030ff0700fdff37001b
:100e30000200fa00000f78000300370000e82300ea
:100e4000010020004f0007001e00780000f0a700fe
:100e50000000ea000000ea004f00de0000407800d9
:100e60001e0fe9000004e000f4ff3a000080fa00e1
:100e7000000006000200fa00000f780005003700ad
:100e800000202000010020003e00070001fe2f008e
:100e90001e8f40001e007800ff0f5000f8ff3e003c
:100ea000030037000001200001002000350007008a
:100eb0001e00780000f0a7000000ea000000ea0031
:100ec0004f00de00004078001e0fe9000004e00043
:100ed000f4ff3a000080fa00000006000000fa006b
:100ee00000002300100888000621ef000000280001
:100ef000400b88006a21ef006e21ef007021ef00a7
:100f00007221ef007421ef007621ef007a21ef00cb
:100f10007c21ef007e21ef001200200080072000de
:100f2000a109200013102000804978008149780031
:100f30008249780012002000600420007105200022
:100f400003102000804978008149780082497800a8
:100f50000000000000088000610060000000e00068
:100f6000fcff3a00000000000108800000022000a1
:100f7000008060000000e000fbff32000080fa000b
:040f80000000060067
:020000040000fa
:100f8400f03fb1000180b10006003500ee03090016
:100f940000000000403fb1000180b100fbff3d00b4
:100fa4001000b000203fb0000200350000800900ae
:080fb40000000000000006002f
:020000040000fa
:100fbc000000fa0041058000f0f82f00008060006e
:100fcc000040a0004005880061058000f0ff28006b
:100fdc000080600000c0a000600588000080fa005e
:100fec00000006000200fa00000f78009e00780056
:100ffc0001408800ffff37000000fa00208020002d
:10100c0080077800a0812000000188000080fa0091
:10101c00000006000000fa00f4fe0700e4ff0700e1
:10102c00abff0700c3fd07008efe07000080fa002f
:04103c0000000600aa
:020000040000fa
:1010400002080000200000008000000000080000ee
:101050000200000082000000ffff0000000000000e
:020000040000fa
:020000040002f8
:04aff000fff300006b
:020000040000fa
:020000040002f8
:04aff400fff6000064
:020000040000fa
:020000040002f8
:04aff8005f300000c6
:020000040000fa
:020000040002f8
:04affc003f3f0000d3
:00000001FF
